:020000040800F2
:10000000E018002005010008AB430008913B000800
:10001000A9430008E91400082D5100080000000061
:100020000000000000000000000000000F49000870
:10003000371700080000000089460008794A0008C8
:100040001F0100081F0100081F0100081F01000810
:100050001F0100081F0100081F0100081F01000800
:100060001F0100081F0100081F0100081F010008F0
:100070001F0100081F010008F516000801170008FD
:100080001F0100081F0100081F0100081F010008D0
:100090001F0100081F0100081F0100081F010008C0
:1000A0001F0100081F0100081F0100081F010008B0
:1000B0001F0100081F0100081F0100081F010008A0
:1000C0001F0100081F0100081F0100081F01000890
:1000D0001F010008215100081F0100081F0100082E
:1000E0001F0100088D4600081F010008DFF810D02E
:1000F00000F00EFF00480047A15B0008AFF300804E
:10010000E01800200648804706480047FEE7FEE763
:10011000FEE7FEE7FEE7FEE7FEE7FEE7FEE7FEE7B7
:10012000FD4A0008ED000008202A04DB203A21FAED
:1001300002F00021704721FA02F3D040C2F1200200
:10014000914008431946704740EA01039B0703D0DA
:1001500009E008C9121F08C0042AFAD203E011F806
:10016000013B00F8013B521EF9D27047D2B201E0C8
:1001700000F8012B491EFBD270470022F6E710B5AC
:1001800013460A4604461946FFF7F0FF204610BD05
:10019000421E12F8013F002BFBD111F8013B02F87F
:1001A000013B002BF9D1704730B505462A460B4676
:1001B00012F8010B13F8014B08B1A042F8D01CB1A2
:1001C000002802D06D1CF1E7284630BD421C10F813
:1001D000011B0029FBD1801A704710B5002200E0F6
:1001E000521C835C8C5CA34201D1002BF8D1D8B2A5
:1001F000E1B2401A10BD00000FB400B58DB010A9D7
:1002000009900B9000914FF0FF300A9000200C9065
:1002100005480690054807906A4609A80F9900F01E
:1002200043FC0DB05DF814FBC50A0008E30A0008A2
:100230002DE9FF5F1D464FF0FF3BD5E90146914692
:100240005F464FF00008A9697F1C01988847296A1A
:10025000824688470028F6D1BAF1FF3F0CD024F43B
:10026000C064002E19DD600614D5BAF12B0F09D039
:10027000BAF12D0F0ED103E0584604B0BDE8F09F4F
:1002800044F48064A9697F1C01988847761E8246E1
:10029000002E02DDBAF1300F03D0B9F1000F26D0E5
:1002A00032E0A969761E44F400747F1C01988847E7
:1002B0008246002E05DDBAF1780F06D0BAF1580F4C
:1002C00003D0B9F1000F10D01EE0B9F1000F02D039
:1002D000B9F1100F18D1A969761E24F400747F1C9F
:1002E000019888478246102002E0082000E00A209A
:1002F000814609E008FB0908A969761E44F40074E8
:100300007F1C019888478246002E05DD49465046ED
:1003100000F0B5FB0028EDDAE96901988847A005EF
:1003200002D46FF00100A8E7E00725D1600613D5DD
:10033000600502D5C8F1000000E0404629680A1DAA
:100340002A600968220501D5087015E0220701D549
:10035000088011E008600FE02868011D296000682E
:10036000210502D580F8008006E0210702D5A0F81B
:10037000008001E0C0F8008038467EE72DE9FF5F8D
:10038000D2E901A74FF00008916999461446DDF8BB
:1003900038B0464601988847054659EA0B0005D013
:1003A00009E0A169761C019888470546216A28461C
:1003B00088470028F5D1681C03D05FEACA7005D0D1
:1003C00015E04FF0FF3004B0BDE8F09F2068011D3C
:1003D0002160D0F800800AE05FEACA7001D108F815
:1003E000015BA169761C7F1E019888470546002F96
:1003F0001ADD681C18D0B9F1000F0DD0E81705EB15
:10040000D060421120F01F0059F822102A1A012052
:1004100090400142E0D107E0BBF1000FDCD1216A3E
:10042000284688470028D7D0E16901988847BBF162
:10043000000F07D1002E05DD5FEACA7002D100214E
:1004400088F80010A068B84203DDBBF1000F03D0AC
:1004500017B16FF00100B6E73046B4E72DE9FF4F62
:10046000087883B09946FF2805D0491C2D2804D070
:100470000024002008E000200BE00124F9E700EB55
:10048000800003EB4000491C0B78FF2BF7D104B12F
:10049000404200230293147819461D462D2C01D0AA
:1004A0002B2C04D1521C2D2C13D000240294AA46CC
:1004B0001478FF2C0FD00A25A3FB057801FB0581DA
:1004C0004FF0000C03FB0C11521CE3194AEB010125
:1004D000EEE70124EAE7814453EA010002D019F56E
:1004E000C87F06DA03980021C0E9001107B0BDE813
:1004F000F08F0025AE4E2F46DFF8B882184600F088
:10050000AEFCCDE90001B9F1000002DAC9F1000446
:1005100000E004460023A74A1AEB030B42EB045AFF
:1005200012E0E00707D02A4633463846414600F03D
:1005300024FC074688462A4633461046194600F0F2
:100540001CFC05460E466410002CEAD1DDE90001D2
:10055000B9F1000F5A46534606DA00F087F93A46D9
:10056000434600F083F905E000F007FC3A464346B5
:1005700000F003FC029A0AB181F00041039AC2E93B
:100580000001B3E72DE9FF4F1F468DB0D7E90146C3
:100590004FF0FF382E2045464FF000090B90B96907
:1005A0006D1C0E988847396A824688470028F6D124
:1005B000BAF1FF3F0AD024F4D064002E11DDBAF165
:1005C0002B0F08D0BAF12D0F0BD102E0404611B02D
:1005D0008DE744F48064B9696D1C0E9888478246A3
:1005E000761E6946600501D52D2000E02B208DF890
:1005F000000001F1010B0DF1200809E0B9696D1C43
:100600000E98884782460F9844F40074761E056061
:10061000002E02DDBAF1300FF0D00B998A453ED1A1
:1006200044F0800406E00F99681CA9F1010944F424
:1006300000740860B9696D1C761E0E988847824662
:100640003028F0D02BE00B998A4505D1200603D441
:1006500044F08004761E18E0504604F093FE08B380
:100660000DF11301761E44F400748B4508D2AAF1F3
:1006700030000BF8010B200607D5A9F1010003E0BB
:10068000200602D409F101008146A00502D50F9988
:10069000681C0860B9696D1C0E9888478246002E58
:1006A000D1DC53E0002E51DDBAF1650F02D0BAF172
:1006B000450F4BD1A00549D5B9696D1C24F4407490
:1006C000761E0E9888478246002E0CDD2B2804D01B
:1006D000BAF12D0F07D144F48074B9696D1C0E98DE
:1006E00088478246761EE00501D52D2100E02B21AA
:1006F00008F8011BCDF82C8021E00DF12901761EB0
:1007000044F4007488450CD2AAF1300010F0FF00C8
:1007100088F8000002D10B99884509D908F1010831
:1007200006E0E00501D5244801E042F20F70814661
:10073000B9696D1C0E98884782460F980560002E97
:1007400004DD504604F01EFE0028D6D1F9690E984B
:100750008847FF208BF8000088F8000000200690F2
:1007600007904B466A4608A906A8FFF777FEA00542
:1007700002D46FF001002AE714F0240F0AD0E0073A
:1007800014D1DDE906123868031D3B600068C0E93A
:1007900000120BE0DDE9060100F09EFB0146E007D8
:1007A00004D13868021D3A600068016028460EE7EF
:1007B000000014400000F03FF1D8FFFFF0B480EAE1
:1007C0000102D40F4200B2EB410F02D202460846AA
:1007D00011464A0042D0C30DDDB2C1F3C752AD1A73
:1007E000202D35DAC1F3160141F4000204B1524262
:1007F000C5F1200602FA06F12A411044B3EBD05F9E
:1008000023D0C4B1012DA0EBC35009DCF0BC4FF0E4
:10081000004202EAC352DBB200F5000000F07BB9EF
:10082000400000F1807000EBC350A0F1807040EAFE
:10083000D170490009E0490841EAC071A0EBC350FA
:1008400000F50000400800EBC350F0BC00F05AB9BE
:100850006142012202EB4101001BF6E7F0BC704748
:1008600081F00041AAE780F00040A7E72DE9F04DB4
:1008700081EA030404F0004B21F0004514464FF0D8
:10088000000A23F0004150EA050220D054EA010298
:100890001DD0C5F30A570246C5F31303C1F3130075
:1008A000C1F30A5640F4801543F48013A7EB060801
:1008B000101BD64608F2FD3873EB050002D308F191
:1008C000010801E092185B41B8F1000F03DA002043
:1008D0000146BDE8F08D00204FF4801106468446A5
:1008E0000EE0171B73EB050705D3121B63EB050323
:1008F00006434CEA010C49084FEA300092185B416C
:1009000050EA0107EDD152EA030012D082EA040056
:1009100083EA0501084305D0101BAB4106D2012232
:10092000002306E000224FF0004302E06FF00102D6
:1009300053101AEB06004CEB085110EB0A0041EB88
:100940000B01BDE8F04D00F014B90EB540F2334193
:1009500002910021CDE900110A460B4600F018F97A
:1009600003B000BD70B5C1F30A5201F00045002488
:10097000C1F3130140F2FF3341F480119A4201DACE
:10098000002070BD40F233439A42A2F2334203DCAE
:100990005242FFF7C9FB00E090402C43F1D04042A7
:1009A00070BD00F0004230F000400AD0C10D01F5EA
:1009B0006071C0F3160042EA0151C20840071143BA
:1009C0007047002001467047002801DBC0F100405D
:1009D000002901DBC1F1004181427047002801DBA1
:1009E000C0F10040002901DBC1F10041884270479D
:1009F00030B50B46014600202022012409E021FAEF
:100A000002F59D4205D303FA02F5491B04FA02F5EB
:100A10002844151EA2F10102F1DC30BD2DE9F05F82
:100A20000546002092469B4688460646814640245D
:100A30001BE02846414647462246FFF775FB5346D2
:100A40005A46C01A914110D311461846224600F06A
:100A500071FA2D1A67EB01084F462246012000214A
:100A600000F068FA17EB00094E41201EA4F10104C2
:100A7000DFDC484631462A464346BDE8F09F3A2827
:100A800000D2303820F02002412A01D3A2F13700F1
:100A9000884201D34FF0FF307047000002681144D4
:100AA0001378016018467047D160044951610449C8
:100AB000116200211161114600F062BA9D0A00081E
:100AC000770F0008426842B1016811F8013B23B179
:100AD000521EC0E90012184670470121C160881EED
:100AE000704742685AB1C368016843B983688B4252
:100AF00005D0491E521CC0E90012002070474FF07B
:100B0000FF3070470029A8BF7047401C490008BF4C
:100B100020F00100704710B4B0FA80FC00FA0CF02D
:100B200050EA010404BF10BC704749B1CCF1200465
:100B300021FA04F411FA0CF118BF012121430843F2
:100B4000A3EB0C01CB1D4FEA00614FEA102042BF1E
:100B5000002010BC704700EBC35010440029A4BF14
:100B600010BC7047401C490008BF20F0010010BCB9
:100B7000704710B5141E73F1000408DA401C41F1EF
:100B8000000192185B411A4301D120F0010010BD11
:100B90002DE9F04D92469B4611B1B1FA81F202E087
:100BA000B0FA80F22032904600F0C4F904460F46B5
:100BB00040EA0A0041EA0B0153465A46084313D063
:100BC000114653EA010019D0C8F140025046FFF720
:100BD000ABFA05460E4650465946424600F0AAF981
:100BE000084305D0012004E020463946BDE8F08DD9
:100BF0000020054346EAE0762C4337430A98630514
:100C0000E40AA0EB08000022FD0A44EA47540A3037
:100C100002D500200146E9E7010510196941DDE927
:100C2000084500196941BDE8F04DA2E72DE9FE4FE6
:100C3000804681EA0300C00F0C46009021F000417D
:100C400023F00045B8EB0200A94105D240462146F9
:100C500090461C460B46024623F00040104347D006
:100C6000270DC7F30A00C3F30A510290401A0190FE
:100C700040286BDAC3F3130040F4801B00989246BF
:100C800020B10023D2EB030A63EB0B0B019859460A
:100C9000C0F14002504600F04DF906460D46504660
:100CA0005946019A00F055F910EB08006141002403
:100CB00087EA115284EAE7731A4340D0009A62B37C
:100CC000019A012A4FEA075215DC001B61EB020171
:100CD0004FF0004202EA0752CDE90042001C41F504
:100CE000801132462B46FFF753FF03B0BDE8F08F6B
:100CF00040462146F9E7001B61EB0201001C41F56B
:100D0000801300185B412018A2F5001747EB030180
:100D100040EAD570B6196D4111E06D084FEA36060C
:100D200045EAC0754FEA0752001B61EB0201001C47
:100D300041F5801149084FEA30000019514132460F
:100D40002B4603B0BDE8F04FFFF713BF0098012218
:100D500040000023D0EB020263EBE07300982146D1
:100D60004FEAE074B8EB000061EB0401E9E783F0BF
:100D700000435BE781F0004158E72DE9FE4F81EA2F
:100D8000030404F0004421F0004100944FF0000BF4
:100D900023F0004350EA01045ED052EA03045BD022
:100DA000C3F30A54C1F30A552C44A4F2F33401945A
:100DB000A0FB0254C1F3130141F48011C3F31303E8
:100DC00043F4801301FB024400FB034E840A970A9C
:100DD00044EA815447EA8357A4FB076802958D0AC9
:100DE00005FB07854FEA932C04FB0C542705029D55
:100DF0004FEA065847EA1637B5EB08056EEB070CC5
:100E0000870E920E47EA811742EA8312A7FB02017E
:100E1000B6EB0B0164EB00042B0D43EA0C335E18B8
:100E200044EB1C50DA465146E7FB0201C5F31304BC
:100E30004FEA0B3343EA14534FEA0432019C43EA6E
:100E40000603A4F10C040294009CCDE900B4FFF762
:100E50009FFE03B0BDE8F08F00200146F9E70EB514
:100E600040F2334202920022CDE900221346FFF7FE
:100E70008FFE03B000BDC1F30A52C1F3130140F26B
:100E8000FF3341F480119A4202DA00200146704794
:100E900040F233439A42A2F2334202DC5242FFF75D
:100EA00043B900F047B8000030B5041E71F10004EA
:100EB00004DB4FF00044404264EB0101141E73F167
:100EC000000405DB1C464FF00043524263EB040371
:100ED000994208BF904230BD01F0004330B421F088
:100EE000004150EA010206D00A0DA2F56072C1F37A
:100EF0001301002A02DC30BC00207047440F44EA92
:100F0000C104C100E01830BC00EBC250FFF7FABDCD
:100F1000064C074D06E0E06840F0010394E8070046
:100F200098471034AC42F6D3FFF7E4F8006A0008A3
:100F3000206A0008202A04DB203A00FA02F100208F
:100F400070479140C2F1200320FA03F31943904007
:100F50007047202A06DBCB17203A41FA02F043EA19
:100F6000E07306E041FA02F3D040C2F12002914062
:100F7000084319467047C0B24FF4F05100F098B9D9
:100F80002DE9F34F8BB04FF0000801F10C000C4637
:100F90004FF0010B46460DF1080A019062690121EC
:100FA00001989047051E2DD0252D2CD0216A884709
:100FB000C0B16269012101989047216A88470028E1
:100FC000F7D1411E62690198904700E0761CA16943
:100FD0000B988847216A88470028F7D1E1690B9868
:100FE0008847DBE7A1690B9888470746A84201D1EB
:100FF000761CD3E7E1690B9888477F1C02D1B8F1D2
:10100000000F6FD047E1002762693D4639460198DD
:1010100090472A2804D1626901210198904701254F
:10102000DFF888926269012101989047A0F13001B0
:101030000A290AD24F45E5DC07EB870100EB41079F
:10104000303FDFD445F01005ECE7E90601D46FF03E
:1010500000476C280AD04C2814D0682815D06A287C
:101060000DD074281CD07A281AD01DE062690121A5
:10107000019890476C2802D045F0040514E045F033
:1010800002050DE045F020050AE0626901210198A2
:101090009047682802D045F0080505E045F4006552
:1010A0006269012101989047C4E9015765283DD044
:1010B00019DC58287AD00CDC452837D004DC2528E8
:1010C00026D0412831D131E046282FD047282CD1D5
:1010D0002CE05B2877D0612828D063287CD0642856
:1010E00023D15AE0D1E06F2848D008DC66281DD013
:1010F00067281BD0692821D06E2816D127E07028D8
:1011000045D0732868D0752847D078280DD14DE098
:10111000A1690B988847054625283FF469AFE16926
:101120000B9888476D1C3FF46AAFB4E023466A46CB
:101130006FF001000B99FFF725FA9FE045F04000A2
:101140006060A80723464FF0000236D43EE0E8076F
:101150007FF447AF2068011D21600068290501D593
:1011600006701BE7290701D5068017E7A90703D5F5
:10117000F117C0E9006111E706600FE745F0400094
:101180006060A80723464FF0080216D41EE040F620
:101190000E0125EA0100606016E045F04000606045
:1011A000A80723464FF00A0207D40FE045F040009D
:1011B0006060A80708D5234610226FF001000B9944
:1011C000AFF300805AE007E0234610226FF00100E1
:1011D0000B99FFF72DF851E04FF000094F464B46B1
:1011E000632802D05B2807D041E02079C00601D4F3
:1011F0000120A06001273AE062690121019890472F
:101200005E2805D14FF0010962694946019890476F
:10121000216939B900210A46534643F82120491C67
:101220000829FADBB0B3216969B9C11700EBD162B3
:1012300053110AEB830122F01F02821A01200B686E
:10124000904003430B6062690121019890475D283B
:10125000E8D1B9F1000F09D00020514651F8202003
:10126000D24341F82020401C0828F7DB02AB22467D
:1012700000976FF001000B99FFF780F800280CDA57
:10128000401C08D1BBF1000F05D04FF0FF300DB06E
:10129000BDE8F08FFFE74046F9E7E90701D108F123
:1012A000010806444FF0000B78E60000CCCCCC0CD3
:1012B0007F2801D9002208E0064A02EB5002C0074D
:1012C000127800D1120902F00F020120904008406C
:1012D000704700003468000870B58C1810F8015B86
:1012E00015F0070301D110F8013B2A1106D110F8BF
:1012F000012B03E010F8016B01F8016B5B1EF9D1C3
:101300002B0705D40023521E0DD401F8013BFAE748
:1013100010F8013BCB1A921C03E013F8015B01F8B3
:10132000015B521EF9D5A142D8D3002070BD000048
:1013300030B54FF40074FBB021462248FEF71DFF84
:1013400021462148FEF719FF20A11F4803F024FF82
:10135000254B26A22AA1684603F01EFF69461A48BB
:10136000FEF716FF184803F0E3FE40F6B8352846AE
:1013700000F0CAFB21461348FEF7FFFE2146124843
:10138000FEF7FBFE234A24A10F4803F005FF0E4899
:1013900003F0CEFE284600F0B7FB21460948FEF7D1
:1013A000ECFE21460848FEF7E8FE22A22DA10648E1
:1013B00003F0F2FE044803F0BBFE284600F0A4FB55
:1013C0007BB030BD5C0A0020E012002041542B4D60
:1013D000515454555345524346473D302C312C22ED
:1013E0004E554C4C222C22001C690008646576691D
:1013F0006365266B30623076457776754D41000027
:101400002573222C222573222C302C302C22220DE5
:101410000A0000006069000841542B4D51545443A8
:101420004C49454E5449443D302C222573220D0A27
:1014300000000000696F742D30367A3030656F6BB4
:10144000656F67326866302E6D7174742E696F74C3
:101450006875622E616C6979756E63732E636F6D4A
:101460000000000041542B4D515454434F4E4E3D0B
:10147000302C222573222C313838332C310D0A00C0
:1014800010B501784FF6FF72407802EA0121084456
:1014900080B2FFF75AFA4FF03332034BFFF7E6F909
:1014A000FFF760FA80B210BD3333F33F08B54FF653
:1014B000FF710246009102234721034800F0F6FC29
:1014C000002800D0012008BDB00C002001B582B07A
:1014D0004FF6FF700090012302AA4621014800F058
:1014E0000DFE0EBDB00C0020FEE700002DE9F04718
:1014F00002248846814625024FF4FA6640F6B83742
:1015000016E029461E48FEF738FE1EA003F010FE26
:10151000304600F0F9FA29461948FEF72EFE1BA0C6
:1015200003F006FE3A461DA1154800F057F910B920
:10153000641EE4B2E5D2E4B1012441F288362946C2
:101540000F48FEF71AFE29461548FEF716FE4346D9
:101550004A4614A1124803F01FFE114803F0E8FDAB
:10156000324616A1064800F039F920B10120BDE845
:10157000F0870020FBE72046641EE4B2DFD2F6E7E6
:101580005C0A0020415445300D0A000041542B43B1
:10159000574D4F44453D310D0A0000004B000000FF
:1015A000E012002041542B43574A41503D222573FD
:1015B000222C222573220D0A000000004F4B000050
:1015C0002DE9F04186B00024204800940194029453
:1015D0000394816941F004018161816901F0040192
:1015E0000491816941F0080181618069DFF86080C0
:1015F00000F00800049001220821404600F086FB1C
:10160000144F4FF41C4500222946384600F07EFB5B
:101610000095022601250396CDE901546946384616
:1016200000F084FA0820CDE90005CDE902466946BC
:10163000404600F07BFA0021074801F04BFF0421EF
:10164000054801F047FF06B0BDE8F08100100240F8
:10165000000C014000080140180D00202DE9F04168
:10166000224C234E1546012809D002281ED1C00263
:10167000C70021B3012924D002292CD12EE04FF438
:101680008060470021B1012904D002290CD10FE06C
:10169000002200E001220146204600F037FB002234
:1016A0003946204600F032FB30684563BDE8F081E2
:1016B00001460022204600F029FB0122F0E700222B
:1016C00000E001220146204600F020FB00223946BE
:1016D000204600F01BFB30688563E7E701460022E7
:1016E000204600F013FB0122F1E700000008014052
:1016F000180D0020014800F0F7B800007C0E002013
:10170000014800F0F1B80000380E002030B590F824
:1017100040500124AC40C56B6C6004686360436852
:10172000102B036803D099600068C26030BD9A60D6
:101730000068C16030BD704710B54FF400711548A6
:10174000FEF71BFD14A003F0F3FC642000F0DCF9AD
:1017500013A116A0FFF7CAFE80B102F027FE02F027
:101760003FFE02F0ABFE0821022313A24FEA010064
:1017700002F0E4FEBDE8104002F0A0BE022312A277
:1017800010211C2002F0DAFE0223202110A22820C2
:10179000EEE700005C0A002041540D0A0000000042
:1017A0003838383838383838000000004855415744
:1017B00045492052530000005769466920636F6E07
:1017C0006E65637465640000574946490000000077
:1017D0006661696C6564000072B6FEE770B5064626
:1017E0000A20B2FBF0F40D4609E029463046FEF728
:1017F000DBFC08B1012070BD0A2000F085F920460D
:10180000641EA4B2F1D270BD10B590F82110002270
:10181000022905D00421816380F82020012010BD19
:1018200001680B6823F00E030B6001680B6823F05E
:1018300001030B6090F84030C46B012101FA03F3FF
:10184000636080F8211080F82020104610BD000051
:1018500010B590F821100024022903D004218163DF
:1018600001243DE001680A6822F00E020A60016866
:101870000A6822F001020A601A4A0168914201D105
:10188000012121E0174A1432914201D110211BE0BD
:10189000144A2832914201D1891515E0114A3C328F
:1018A000914201D189140FE00E4A5032914202D187
:1018B0004FF4803108E00B4A6432914202D14FF478
:1018C000801101E04FF08071064A083A5160012111
:1018D00080F82110002180F82010416B01B1884769
:1018E000204610BD080002402DE9F05FC16B0C6876
:1018F00001680B68D0F840C0042202FA0CF2494D8E
:10190000DFF824A1494E4A4FDFF828B1DFF828E17B
:1019100022422CD05A072AD50A68920603D40A68B4
:1019200022F004020A600168A94201D1042219E0F0
:10193000514501D1402215E0B14202D14FF48062FD
:1019400010E0B94202D14FF480420BE0594502D178
:101950004FF4802206E0714502D14FF4800201E08D
:101960004FF080622F4908394A60C16A3BE04FF06E
:10197000020808FA0CF818EA040F4FF000094FF0BB
:10198000010235D05FEA837832D50B689B0605D417
:101990000B6823F00A030B6080F821200168A9423C
:1019A00001D1022219E0514501D1202215E0B142B6
:1019B00002D14FF4007210E0B94202D14FF400524C
:1019C0000BE0594502D14FF4003206E0714502D1D7
:1019D0004FF4001201E04FF00072124908394A60DA
:1019E00080F82090816A00291AD0BDE8F05F08478E
:1019F000082505FA0CF5254212D01B0710D50B68F7
:101A000023F00E030B6090F84010C36B02FA01F153
:101A10005960826380F8212080F82090016BE2E712
:101A2000BDE8F09F080002401C0002403000024068
:101A300044000240580002406C00024030B528B318
:101A400008C8134914221944B1FBF2F18900C1639B
:101A500010498163022141771A6843F6F0718A4385
:101A6000D0E900142143D0E902452C432143046905
:101A700021434469214384692143114319600021B2
:101A80004163012242770177084630BD012030BD15
:101A9000F8FFFDBF0000024070B5044690F820003A
:101AA000002501280CD0012084F8200094F8216042
:101AB0000020012E06D084F820000225284670BDA3
:101AC000022070BD022684F82160A06320680668A9
:101AD00026F0010606602046FFF718FEE06A00289F
:101AE0002068016802D041F00E0106E021F00401F7
:101AF00001602068016841F00A0101602068016806
:101B000041F001010160D9E770B5044600F004F925
:101B10000546601C02D004480078044400F0FCF83C
:101B2000401BA042FAD370BD100000202DE9F84FF1
:101B3000DFF8B8910024A9F1040B23460F2709F11F
:101B4000040AABF1040EC9E00125A5402A40AA42CF
:101B50007DD1674ED1F804C0ACEB0608B44532D055
:101B600014DCBCF1030F3AD009DCBCF1000F2AD021
:101B7000BCF1010F1CD0BCF1020F31D11DE0BCF152
:101B8000110F17D0BCF1120F2AD119E0B8F5881F38
:101B900019D006DCB8F5803F15D0B8F5801F1FD1ED
:101BA00011E0B8F5001F0ED0B8F5041F18D10AE0F7
:101BB000CB6815E0CB681B1D12E0CB6808330FE043
:101BC000CB680C330CE08B682BB1012B4FF0080372
:101BD00003D0456104E0042302E0056100E0002336
:101BE000FF2A01D8064601E000F104064FEA840509
:101BF00001D9A5F12005D6F8008007FA05FC28EAEE
:101C00000C0803FA05F548EA0508C6F800804D6897
:101C1000ED0062D5374DAE6946F00106AE61AD69A3
:101C200024F0030605F001050095334D06EB050C85
:101C3000DCF80850A607360F07FA06F825EA08056B
:101C4000DFF8B880404503D14FF0000817E044E0CA
:101C5000DFF8AC80404502D14FF001080FE0DFF81B
:101C6000A480404502D14FF0020808E0DFF89880D8
:101C7000404502D14FF0030801E04FF0040808FA94
:101C800006F848EA0508CCF808804D68D9F80060E5
:101C9000ED024D4601D5164300E096432E604D6897
:101CA000DAF80060AD02554601D5164300E09643D0
:101CB0002E604D68DBF80060AD035D4601D516432C
:101CC00000E096432E604D68DEF80060ED03754637
:101CD00001D5164300E096432E60641C0D682A4629
:101CE000E5407FF431AFBDE8F88F00000804014003
:101CF00000001110001002400000014000080140E7
:101D0000000C014000100140001401400AB10161C3
:101D100070470904FBE70000014880687047000035
:101D20001000002070B5040025D094F83D00002577
:101D300020B984F83C50204600F00EFB242084F8A3
:101D40003D002068016821F0010101602068016800
:101D500041F4004101602068016821F40041016004
:101D600000F04AFD4D4A6168914201D84C4900E0BB
:101D70004C49884201D2012070BD4B492368B0FB19
:101D8000F1F15E6826F03F060E435E6063689342A1
:101D900006D94FF4967359434FF47A73B1FBF3F1BC
:101DA0002368491C1E6A26F03F06314319626168A8
:101DB000914210D84900401EB0FBF1F2521CC2F310
:101DC0000B02042A01D2042022E0B0FBF1F0401CF7
:101DD000C0F30B001CE0A268F2B301EBC10303EBFC
:101DE0000116431EB3FBF6F35B1C43F480431B0553
:101DF00049D092B301EBC10202EB0111401EB0FBCE
:101E0000F1F0401CC0F30B0040F4804040F400406F
:101E10002168CA694CF6FF739A431043C861D4E93C
:101E2000071001432068026822F0C00211430160DC
:101E3000D4E9030101432068826848F2FF339A43E2
:101E400011438160D4E9050108432168CA6822F082
:101E5000FF021043C86001E00EE016E02068016850
:101E600041F0010101602564202084F83D002563D4
:101E700084F83E50002070BD01EB4106431EB3FBC9
:101E8000F6F35B1CB3E70120C2E701EB4101401E02
:101E9000B0FBF1F0401CC0F30B00B7E7A0860100D7
:101EA00080841E0000093D0040420F002DE9F84FDC
:101EB0000025DDF82890984617468A460446009586
:101EC000FFF72AFF064694F83D0020287AD119230F
:101ED000012286492046009601F0B6FF0028F5D180
:101EE00094F83C0001286DD0012084F83C00206863
:101EF0000168C90703D1016841F001010160206850
:101F0000016821F400610160222084F83D00102066
:101F100084F83E0025646762A4F82A80608D2085DD
:101F20007348E06233464A465146204601F048FE77
:101F300000287CD1208DDFF8BC81202768B10128E2
:101F400014D00228206801681ED041F4806101602D
:101F50002068416980690090BBE02068416981691F
:101F60000091016841F400710160B2E020680168ED
:101F700021F48061016072B6206841698169009135
:101F8000016841F400710AE041F40061016072B639
:101F90002068416981690091016821F480610160D4
:101FA00062B696E0032865D801280CD002284B467B
:101FB0004FF000024146204600960BD001F044FF4E
:101FC000A8BB0CE090E032464946204601F0E2FF13
:101FD00068BB71E001F038FF48BB72B633E020689F
:101FE000016821F48061016072B620680069616A4D
:101FF0000870606A401C6062208D401E2085608DE4
:10200000401E60853C4846F2A8110068B0FBF1F024
:10201000C0EBC00000EB80000090401E009007D095
:1020200020684069C04340070DD50098F5E727E0D8
:1020300044F8305F6773A573206940F02000206189
:1020400062B625731CE02068016841F400710160EC
:1020500020680069616A0870606A401C6062218DB6
:10206000491E2185618D491E618562B62168096915
:10207000017025E032464946204601F08BFF10B141
:102080000120BDE8F88F20680069616A0870606A05
:10209000401C6062208D401E81B22185608D401EF3
:1020A000608520684269D243520712D4032903D1C4
:1020B000016821F48061016020680069616A08702C
:1020C000606A401C6062208D401E2085608D401E2D
:1020D0006085208D00287FF465AF84F83D7084F81A
:1020E0003E5084F83C50CCE70220CAE702001000C2
:1020F0000000FFFF040001001C0000202DE9F84F44
:102100001F4690468A460446DDF82890FFF704FEF5
:10211000054694F83D0020287FD11923012240492B
:102120002046009501F090FE002876D194F83C00FE
:10213000012872D0012084F83C0020680168C9079A
:1021400003D1016841F0010101602068016821F4B8
:1021500000610160212084F83D00102084F83E00D9
:1021600000262664C4F824806785608D20852D486C
:10217000E0622B464A465146204601F097FD90B951
:10218000206841698069009036E02A464946204629
:1021900001F038FF50B1206C042804D12068016898
:1021A00041F4007101600120BDE8F88F606A216888
:1021B00000780861606A401C6062618D491E61851B
:1021C000218D491E89B2218522685369DB435B0753
:1021D0000BD451B100781061606A401C6062608D60
:1021E000401E6085208D401E20852A464946204697
:1021F00001F0FEFD0028CED1208D0028C5D154F875
:102200003D0B016841F400710160202004F81E09B3
:10221000E67766770020C7E7FFE70220C4E7000003
:10222000020010000000FFFF2DE9FF4F83B09A4627
:10223000DDE9119793460446DDF84080FFF76CFD19
:10224000054694F83D0020287FD1192301224049FA
:102250002046009501F0F8FD002876D194F83C0066
:10226000012872D0012084F83C0020680168C90769
:1022700003D1016841F0010101602068016821F487
:1022800000610160212084F83D00402084F83E0078
:1022900000262664C4F82480A4F82A90608D208546
:1022A0002C48E062CDE9007553465A462046049911
:1022B00001F04AFD70B930E02A463946204601F067
:1022C000A1FE58B1206C042804D12068016841F4B3
:1022D00000710160012007B0BDE8F08F606A2168DD
:1022E00000780861606A401C6062218D491E89B2D5
:1022F0002185628D521E628522685369DB435B072C
:102300000BD469B100781061606A401C6062208D56
:10231000401E2085608D401E6085208D0028CBD119
:102320002A463946204601F063FD0028CAD154F8F8
:102330003D0B016841F400710160202004F81E0982
:10234000E67766770020C6E7FFE70220C3E70000D4
:10235000020010000000FFFF30B585B000210091A1
:10236000019102910391214D0368214C1221032216
:102370002048AB421DD1A36943F00803A361A369C0
:10238000039203F0080304931302CDE90031694678
:10239000FFF7CCFB1848416841F0E06141F00201D1
:1023A0004160E06940F40010E061E06900F4001071
:1023B00019E0124DAB4217D1A36943F00803A361A2
:1023C000A369039203F0080304934FF44063CDE93B
:1023D00000316946FFF7AAFBE06940F48000E06144
:1023E000E06900F48000049005B030BD0054004066
:1023F00000100240000C0140000001400058004065
:102400000248816802781144816070471000002002
:10241000074810B5016841F010010160032000F089
:1024200075F80F2000F006F800F024F8002010BD29
:102430000020024070B50D4D04464FF47A712878A3
:10244000B1FBF0F00A490968B1FBF0F000F049FE79
:1024500048B9102C07D200222146501E00F036F851
:1024600000206C6070BD012070BD000010000020D5
:102470001C0000200C4808B5816941F00101816110
:10248000816901F001010091C16941F08051C16190
:10249000C06900F0805000900448416821F0E0617C
:1024A00041F00071416008BD001002400000014091
:1024B000002809DB00F01F02012191404009800043
:1024C00000F1E020C0F8001170470000F0B40E4B9E
:1024D0001B680C46C3F30223C3F10705042D00D982
:1024E0000425191D072901D2002300E0DB1E012667
:1024F00006FA05F1491E214099409E40761E16407D
:102500003143F0BC02F05CBE0CED00E0064900F087
:10251000070208684FF6FF03184040EA0220034A0A
:1025200010430860704700000CED00E00000FA0561
:10253000014901200862704700000E4210B50146B3
:102540000020234C012922D0022939D010291DD185
:1025500061682268D20119D51E48C1F38342C903BC
:10256000805C0AD561681B4AC1F34041921E515CF0
:10257000194AB2FBF1F1484301E018494843616848
:10258000490203D440000321B0FBF1F010BD226AE0
:10259000C2F30121012903D1920701D5C80310BD5F
:1025A000022905D1626A920702D549F6404010BD62
:1025B0000329FCD121688903F9D54FF2244010BDCD
:1025C00000F02AF96168C1F38131491C4900DBE759
:1025D00000100240C067000800127A0000093D00A8
:1025E0002DE9F84305460078354CC00754D0E06922
:1025F0000026C00008D4E06940F08050E061E06946
:10260000012600F0805000902E480168C90512D4C0
:102610000168804641F480710160FFF77DFB074649
:1026200005E000BFFFF778FBC01B642823D8D8F86B
:102630000000C005F6D5206A10F4407021D0A988AA
:1026400001F4407181421CD0206A1F49012220F40C
:1026500040700A6000220A602062C00711D0FFF7B4
:102660005BFB074641F2883808E000BFFFF754FBE8
:10267000C11B414502D90320BDE8F883206A8007C9
:10268000F4D5206A696820F44070084320621EB1C6
:10269000E06920F08050E0612878800705D5606807
:1026A000A96820F44040084360602878C00605D53A
:1026B0006068E96820F48000084360600020DBE780
:1026C0000010024000700040400442422DE9F047F3
:1026D0000F46050061D0434E306800F00700B84255
:1026E00009D2306820F0070038433060306800F0CD
:1026F0000700B84251D128683B4C810712D54007EA
:1027000003D5606840F4E06060602878000703D576
:10271000606840F4605060606068A96820F0F00074
:10272000084360602878C00728D06868012810D066
:102730002168022810D0890700292EDA616821F06B
:10274000030101436160FFF7E7FA804641F28839EF
:102750000DE021688903EFE78901EDE7FFF7DCFA77
:10276000A0EB0801494502D90320BDE8F087606865
:10277000696800F00C00B0EB810FEFD1306800F019
:102780000700B8420BD9306820F0070038433060AA
:10279000306800F00700B84201D00120E5E7287852
:1027A000400705D56068E96820F4E0600843606090
:1027B0002878000706D56068296920F4605040EA4F
:1027C000C100606000F038F86168084AC1F3031185
:1027D000515CC8400649086006480068FFF72AFEB9
:1027E0000020C2E70020024000100240D06700082D
:1027F0001C000020140000200448054900684968B6
:10280000044AC1F30221515CC84070471C000020FB
:1028100000100240E0670008044805490068496864
:10282000044AC1F3C221515CC84070471C0000201B
:1028300000100240E06700080E4A51680E4801F09F
:102840000C03042B11D0082B0FD10C48C1F3834388
:10285000C903C05C0AD55168084AC1F34041921EC1
:10286000515C054A5043B0FBF1F0704704494843BE
:10287000704700000010024000127A00AE670008A6
:1028800000093D002DE9F84F040070D02078C04DBC
:10289000C00749D06868C0F38100012807D0686884
:1028A000C0F38100022809D16868C00306D52868F2
:1028B000800339D560680028E7D035E06068B0F55E
:1028C000803F0BD010B1B0F5A02F11D0286820F4B4
:1028D00080302860286820F4802002E0286840F4D6
:1028E00080302860606890B1FFF716FA06460AE06B
:1028F000286840F480202860F0E700BFFFF70CFA5A
:10290000801B642873D828688003F7D50CE0FFF794
:1029100003FA064605E000BFFFF7FEF9801B6428B6
:10292000F0D828688003F7D420789A4E80074FF0BB
:1029300001094FF0000839D5686810F00C0F07D076
:102940006868C0F38100022809D16868C00306D412
:102950002868800714D52069012808D110E0206973
:10296000B0B1C6F80090FFF7D7F9074605E00AE1D5
:10297000FFF7D2F9C01B0228C4D828688007F7D512
:102980002868616920F0F80040EAC10028600DE085
:10299000C6F80080FFF7C0F9074604E0FFF7BCF96E
:1029A000C01B022823D828688007F7D420780007A6
:1029B0002CD57948A169D9B1C0F80090FFF7ACF9DE
:1029C000074604E0FFF7A8F9C01B02280FD8686A81
:1029D0008007F7D571484FF4FA510068B0FBF1F069
:1029E000009000BF0098411E0091FAD20EE080E0F6
:1029F000C0F80080FFF790F9074604E0FFF78CF974
:102A0000C01B022875D8686A8007F7D42078400771
:102A100060D5E8690027C00008D4E86940F080501C
:102A2000E861E869012700F0805000905C48016887
:102A3000C90513D40168834641F480710160FFF732
:102A40006BF9824606E000BFFFF766F9A0EB0A00CB
:102A500064284ED8DBF80000C005F5D5E0680128F1
:102A60000AD008B1052813D0286A20F00100286296
:102A7000286A20F0040002E0286A40F00100286281
:102A8000E06841F2883B98B1FFF746F982460BE0D7
:102A9000286A40F004002862EEE700BFFFF73CF927
:102AA000A0EB0A0159455AD8286A8007F6D50CE0F0
:102AB000FFF732F9824605E0FFF72EF9A0EB0A0195
:102AC00059454CD8286A8007F6D41FB1E86920F030
:102AD0008050E861E06988B36968C1F38101022927
:102AE00044D00228C6F8608004D0FFF715F90446E8
:102AF00038E034E0FFF710F9074604E0FFF70CF97F
:102B0000C01B02282BD828688001F7D4206AB0F5B2
:102B1000803F05D16868A16820F4003008436860F0
:102B2000D4E908010843696821F474110843686016
:102B3000C6F86090FFF7F0F8044606E025E000BF15
:102B4000FFF7EAF8001B022809D828688001F7D5AA
:102B50001BE000BFFFF7E0F8001B022802D90320AA
:102B6000BDE8F88F28688001F4D40EE00128F7D082
:102B70006868226A00F48031914204D1616A00F4ED
:102B80007010884201D00120EAE70020E8E7000049
:102B90000010024000004242800442421C0000201B
:102BA000007000400149012048607047000000208B
:102BB00010B504460068016889070AD54068800797
:102BC00007D52046FFF7EEFF2068416821F002019B
:102BD000416003494FF4003008600120607410BD6B
:102BE0001404014070B51D460C4660B35CB301F09F
:102BF000F4FD4FF46161B0FBF1F21823B2FBF3F680
:102C000003FB1622B0FBF1F301FB13063C23B6FBDA
:102C1000F3F622706670B0FBF1F601FB1600B0FB14
:102C2000F3F103FB1100A0705DB1104601F03DFD12
:102C30002070607801F039FD6070A07801F035FDFA
:102C4000A070002070BD012070BDF8B505004FF0E8
:102C5000000016460C46009006D02CB100226946B2
:102C6000284600F019F808B10120F8BD287B207033
:102C7000E87BE070697B6170A97BA17056B101F0BF
:102C800014FDE070607801F010FD6070A07801F034
:102C90000CFDA0700020F8BD2DE9F04791460C46D0
:102CA0005FEA00084AD084B3D8F8000040684007C3
:102CB00044D4404601F098FD4FF461620546B0FBF4
:102CC000F2F1B0FBF2F302FB13503C23B0FBF3F044
:102CD000B5FBF2F6607002FB1650B0FBF3F203FB9B
:102CE0001200A070182931D31820B1FBF0F7B1FB06
:102CF000F0F200FB12102070404601F06EFD411C06
:102D000004D0A84202D9461B02E017E04FF0FF367C
:102D1000A7EB071000EB4000C0EB001005EBC0155F
:102D20002946404601F0AFFD40B9701C01D0711931
:102D300000E03146404601F092FD10B10120BDE8AF
:102D4000F0873946404601F0BBFC00E02170B9F144
:102D5000000F0BD0207801F0A8FC2070607801F003
:102D6000A4FC6070A07801F0A0FCA0700020E6E751
:102D700070B5040003D0607C002610B105E001208E
:102D800070BD2674204600F03DF802206074204695
:102D900000F08AF9042550BB204601F0E8FC30BB66
:102DA0002068416821F007014160A06820B1144803
:102DB000016821F0010101601148001F0168A2684B
:102DC00021F46071114301606068411C04D101204D
:102DD000FFF7B4FB58B1401E2268C0F30341916075
:102DE000216880B2C860204601F0DCFC08B165743F
:102DF000C5E7E67301206073A0736074002070BDA6
:102E0000306C004008B500680D49884217D1FFF7C3
:102E10008FFB0C48C16941F00061C161C0690A497A
:102E200000F0006000900120086000221146292077
:102E3000FFF74CFBBDE808402920FFF739BB08BD70
:102E400000280040001002403C0442422DE9F843B3
:102E50004FF0000617460D46040000960FD075B1DE
:102E6000207C01280ED04FF0010984F81090022038
:102E70006074002269462046FFF70EFF20B1012052
:102E8000BDE8F8830220FBE79DF800004FF4616184
:102E900048439DF80110C1EB011100EB81009DF842
:102EA000021000EB01082878E7B101F0F5FB4FF4C0
:102EB000616100FB01F7687801F0EEFBC0EB0010E8
:102EC00007EB8007A87801F0E7FB3918414501D2EC
:102ED00017480144204601F0C2FC70B10420607420
:102EE0002674CCE74FF4616148436978C1EB011166
:102EF00000EB8100A9780144E8E72068416821F0EF
:102F0000020141602068016841F002010160094846
:102F1000016841F40031016006480830016841F45D
:102F20000031016084F8119026740020A8E70000A9
:102F300080510100000401402DE9F0410D460400DC
:102F40003BD0C5B3207C01283AD04FF0010884F86B
:102F5000108002206074E87872B301F09DFBE0738A
:102F6000687801F099FB6073A87801F095FBA07375
:102F7000C2B2617BE07B01F047FC207328702046E1
:102F800001F032FC4FF46161B0FBF1F1002518292A
:102F90002DD91822B1FBF2F1A1EB011101EB410196
:102FA000C1EB011100EBC1163146204601F06BFC6C
:102FB0000427C8B90BE000E004E00120BDE8F0817F
:102FC0000220FBE7E07368786073A878CFE72046BB
:102FD00001F003FC411C0AD0B04208D2064901446A
:102FE000204601F03CFC10B167742574E5E784F8D5
:102FF000118025740020E1E7805101002DE9F041A6
:103000000D46040024D01DB3207C012823D04FF0AE
:10301000010884F81080022060742878EAB101F079
:103020003BFB4FF4616100FB01F6687801F034FB73
:10303000C0EB001006EB8006A87801F02DFB3518D8
:103040002946204601F01FFC0026042710BB0FE094
:103050000120BDE8F0810220FBE74FF461614843A5
:103060006978C1EB011100EB8100A9784518E7E709
:103070002068416821F005014160204601F0ADFB68
:10308000411C0AD0A84208D206490144204601F05A
:10309000E6FB10B167742674DAE784F811802674B1
:1030A0000020D6E78051010070B504000AD02068E6
:1030B000416821F008014160FEF72EFE05464FF4FD
:1030C0007A7608E0012070BDFEF726FE401BB04274
:1030D00001D9032070BD206840680007F4D50020A6
:1030E00070BD10B5401EB0F1807F01D3012010BD2E
:1030F0004FF0E02460610F21601702F061F80020BA
:10310000A06107202061002010BD10B590F83C2080
:10311000012A22D0012280F83C20CA688C6822F45F
:10312000407222434C6822F4806222430C6822F4ED
:10313000006222430C6922F4805222434C6922F43B
:1031400000522243C969002322F480420A430168E5
:103150004A6480F83C30002010BD022010BD000001
:1031600070B590F83C20012A26D0012480F83C401C
:10317000022280F83D2003685A689D6822F070069C
:103180000A6832435A600D4B02689A4208D0B2F185
:10319000804F05D00A4B9A4202D00A4B9A4204D182
:1031A000496825F080031943916080F83D40002173
:1031B00080F83C10084670BD022070BD002C014014
:1031C000000400400008004010B5040003D094F84B
:1031D0003D0010B107E0012010BD002084F83C0044
:1031E000204600F01FF8022084F83D00211D2068D1
:1031F00001F086FC012084F8460084F83E0084F843
:103200003F0084F8400084F8410084F8420084F8CC
:10321000430084F8440084F8450084F83D00002011
:1032200010BD000008B50C4A01680C48914207D156
:10323000816941F400618161806900F4006009E006
:10324000074A914207D1C16941F00201C161C069D9
:1032500000F00200009008BD002C01400010024068
:103260000004004070B5044690F83C000025012899
:1032700017D0012684F83C60022084F83D002068C5
:10328000826822F0770222F47F4282600868502828
:1032900038D00DDC20284FD005DC90B3102811D198
:1032A0004AE0022070BD302846D040280AD13BE0D9
:1032B00060282FD070280DD0B0F5805F03D0B0F516
:1032C000005F12D0012584F83D60002084F83C00A6
:1032D000284670BDCB68D1E90121206801F053FC7C
:1032E0002068816841F0770109E0CB68D1E90121CC
:1032F000206801F048FC2068816841F480418160C9
:10330000E1E719E0CA684968206801F0F1FC502142
:10331000206806E0CA684968206801F0FAFC60216C
:10332000206801F03AFCCEE7CA684968206801F0DD
:10333000DFFC40212068F4E7226801461046F0E7F0
:1033400010B586B000210091019102910391134CB8
:103350000368134902221348A3420AD18B6943F040
:1033600004038B61896901F0040104914FF44071F9
:103370000BE00D4CA3420ED18B6943F004038B612B
:10338000896901F004010491C021CDE90012694668
:103390000392FEF7CBFB06B010BD0000002C0140ED
:1033A00000100240000801400004004070B50446CF
:1033B00090F83C0000260D4601280FD0012084F82B
:1033C0003C006AB1042A1DD0082A2FD00C2A3FD015
:1033D0000126002084F83C00304670BD022070BDFC
:1033E000206801F0E3FB2068816941F008018161F8
:1033F0002068816921F004018161206881692A695E
:10340000114311E0206801F0F9FB2068816941F463
:10341000006181612068816921F480618161206897
:1034200081692A6941EA02218161D2E7206801F0BD
:1034300011FC2068C16941F00801C1612068C169BF
:1034400021F00401C1612068C1692A69114311E0BA
:10345000206801F02BFC2068C16941F40061C16162
:103460002068C16921F48061C1612068C1692A694D
:1034700041EA0221C161ACE710B5040003D094F821
:103480003D0010B107E0012010BD002084F83C0091
:10349000204600F01EF8022084F83D00211D20681F
:1034A00001F02EFB012084F8460084F83E0084F8E9
:1034B0003F0084F8400084F8410084F8420084F81A
:1034C000430084F8440084F8450084F83D0000205F
:1034D00010BD704710B50446022249B104290ED030
:1034E000082913D094F84100012816D0012010BDFE
:1034F00094F83E000128F9D184F83E200FE094F8BA
:103500003F000128F2D184F83F2008E094F8400001
:103510000128EBD184F8402001E084F84120012209
:10352000206801F023FB0F492068884203D1426CD8
:1035300042F4004242642068884208D0B0F1804FD3
:1035400005D00949884202D00849884204D18168DF
:1035500001F00701062903D0016841F00101016073
:10356000002010BD002C0140000400400008004075
:1035700038B5044690F84200202801D0022038BD1A
:1035800061B15AB10120206300206063204601F040
:1035900043FD0028F3D1216B012901D0012038BD62
:1035A00021680A684968009121680C3151E8002FB0
:1035B00042F0100241E80023002BF5D138BD000095
:1035C00010B50068104988421CD110A11048FCF7C2
:1035D000EBFD10B10F49012008700FA10C48FCF75A
:1035E000E3FD18B11049114802F002FE4FF40072D9
:1035F00007490E48FFF7BCFF0D480068016821F03D
:103600000401016010BD00000038014073657400C2
:103610005C0A0020000000202B434950534E5450B8
:1036200054494D453A000000040D0020A80D00202B
:10363000380E002070470000F8B50168044608689D
:10364000CA684B6910F00F0F4FF0000559D003F016
:10365000010602F49077374365D0C10705D0D10544
:1036600003D5616C41F001016164410705D5D907BB
:1036700003D0616C41F002016164810705D5D9076F
:1036800003D0616C41F004016164010707D502F0C9
:103690002001314303D0616C41F008016164616C29
:1036A00000293AD0800604D5900602D5204601F0C4
:1036B000F6FB20684069616CC0F38010090700D4F4
:1036C00060B3204601F0B6FB20684069400621D572
:1036D0002068143050E8001F21F0400140E800123B
:1036E000002AF5D1E06BA8B16D494163E06BFEF7AC
:1036F000AFF8002811D0E06B416B01B0BDE8F0409D
:10370000084783060FD593060DD52046BDE8F8403F
:1037100001F0C5BB2046FFF78DFFF8BD2046FFF73F
:1037200089FF6564F8BD266B2023012E7CD1C60677
:103730007AD5D60678D508684868009048694FF071
:103740000206400640D5E16B086840680004000CA2
:10375000E8D0A28D8242E5D9E085886920282DD065
:1037600020680C3050E8001F21F4807140E80012FE
:10377000002AF5D12068143050E8001F21F0010123
:1037800040E80012002AF5D12068143050E8001FEC
:1037900021F0400140E80012002AF5D184F84230BF
:1037A000256320680C3050E8001F21F0100140E82C
:1037B0000012002AF5D1E06BFEF726F86663A08DB3
:1037C000E18D401A81B22AE0A08DE18D401A81B2CC
:1037D000E08D0028A6D00029A4D022680C3252E83F
:1037E000000F20F4907042E80007002FF5D1206808
:1037F000143050E8002F22F0010240E80027002F8B
:10380000F5D184F84230256320680C3050E8002F51
:1038100022F0100240E80023002BF5D16663204619
:10382000FFF7CEFEF8BDFFE705062BD5150629D517
:1038300094F841002128F5D1A068B0F5805F01D14E
:103840002069B0B1206A411C21622168007848607B
:10385000E08C401E0004000CE084E3D12068C168C5
:1038600021F08001C1602068C16841F04001C16061
:10387000D8E7206A0088C0F308004860206A801CEE
:103880002062E5E74006CDD55006CBD5CA68204674
:1038900022F04002CA6084F8413000F078F9C1E7B4
:1038A000374D000870B5040004D094F8410000259D
:1038B00010B106E0012070BD84F84050204600F0B1
:1038C00023F8242084F841002068C16821F40051C5
:1038D000C160204601F044FB2068016921F4904159
:1038E00001612068416921F02A0141612068C168B5
:1038F00041F40051C1606564202084F8410084F8DF
:1039000042006563002070BDF0B585B000240094CE
:103910000194029403940646424D036842480221F2
:103920000322AB4258D1836943F4804383618369A6
:1039300003F480430493836943F00803836180693F
:103940003A4D00F0080004904020CDE900010392B8
:1039500069462846FEF7EAF88027CDE900746946F3
:1039600028460294FEF7E2F83148416841F0E061F0
:1039700041F004014160304D2E48C5E90004C5E91D
:1039800002472C616C61AC612846EC61FEF756F889
:1039900008B1FDF721FFF5636E62274D25484435D8
:1039A000143801C5102091C5234845F8104944300A
:1039B0006C61AC61EC61FEF741F808B1FDF70CFFFA
:1039C000B5630022012125206E62FEF77FFD2520D0
:1039D000FEF76EFD05B0F0BD184DAB42FAD1C369DC
:1039E00043F40033C361C36903F400330493836970
:1039F00043F0040383618069114D00F004000490DA
:103A00000420CDE90001039269462846FEF78EF8AE
:103A10000820CDE90004694628460294FEF786F89E
:103A2000D8E700000038014000100240000C0140BF
:103A30000000014058000240380E002000440040C1
:103A4000000801402DE9F843044690F842009946E9
:103A500016460D46202802D00220BDE8F883ADB1FD
:103A6000A6B100206064222184F842102063FEF792
:103A700053F9A6858046E685A0684FF48057B84282
:103A800001D1206920B12E46002526E00120E4E77F
:103A9000002622E04346002220212046CDF8009057
:103AA00001F002FB08B10320D7E726B1A068B842B5
:103AB0001BD038B108E020684068C0F3080025F842
:103AC000020B07E0206980B12068406800F07F00A9
:103AD00006F8010BE08D401EE085E08D0028D9D16D
:103AE000202084F842000020B7E720684068EFE714
:103AF000704770472DE9F843044690F841001F468F
:103B000016460D46202802D00220BDE8F8837DB17C
:103B100076B100206064212084F84100FEF7FCF8B3
:103B2000A6848046E684A068B0F5805F02D003E0FA
:103B30000120EAE7206910B12E4600250EE000269C
:103B40000CE08021204601F0AFFAA0B9AEB116F822
:103B5000010B21684860E08C401EE084E08C434605
:103B60004FF0000200970028EBD14FF040012046B3
:103B700001F09AFA30B10320C7E735F8020BC0F321
:103B80000800E6E7202084F841000020BDE77047E8
:103B9000FEE701684A69D24352050FD46FF4806290
:103BA0004A61002140F8301F20224273817302696C
:103BB00042F0040202610173012070470020704747
:103BC0002DE9F84F0446C06A1E4693460D4621680B
:103BD0000A6842F480620A60082807D0012805D0EC
:103BE00010F5803F02D0206B112804D120680168B5
:103BF00041F4807101604FF001195B460022494693
:103C00002046009600F020F94FF4007840B120687B
:103C10000068C00501D5C4F840800320BDE8F88FD6
:103C20002069DFF884A0B0F5804F0FD0062021680E
:103C300000EAD51747F0F000086133465A460AF10A
:103C40000601204600F048F958BB03E0E8B240F016
:103C500001001CE02168E8B2086133465A4651462B
:103C6000204600F039F9E0B9206841698169009186
:103C7000016841F4807101605B460022494620469C
:103C8000009600F0E1F80028C1D147F0F10021686A
:103C9000086133465A465146204600F01DF9002877
:103CA000BCD00120BAE7000002000100F8B50446CC
:103CB000C06A1E460D461746082807D0012805D0C1
:103CC00010F5803F02D0206B122804D120680168D3
:103CD00041F480710160134600224FF0011120462B
:103CE000009600F0B1F840B120680068C00502D528
:103CF0004FF4007020640320F8BD2069B0F5804FB8
:103D00000ED00620216800EAD51040F0F0000861CE
:103D100033463A460B49204600F0DEF878B902E017
:103D200005F0FE0000E0E8B221680861054933466D
:103D30003A46891F204600F0CFF80028DCD0012049
:103D4000F8BD0000080001002DE9F84304460068B2
:103D50000D46DDE9089701689846164641F48071E2
:103D600001604B4600224FF001112046009700F001
:103D70006BF848B120680068C00502D54FF40070A8
:103D800020640320BDE8F883216805F0FE00086187
:103D90003B464A461549204600F09EF888B92068FF
:103DA0004169806900903A464946204600F02AF968
:103DB00048B1206C042804D12068016841F40071E6
:103DC00001600120DEE7F5B2B8F1010F09D02168EA
:103DD000300A08613A464946204600F013F90028A7
:103DE000E7D1206805610020CCE700000200010057
:103DF00070B516460D4604461EE02046FFF7C9FE84
:103E000008B1012070BD681C16D0FDF785FF801B2E
:103E1000A84200D885B920684069C04340070BD547
:103E2000002044F8300F20216173A073216941F014
:103E3000200121612073E4E720684069C043400706
:103E4000DBD4002070BD00002DE9F04798461746EE
:103E50000D460446C1F30746DDF820902AE000BF76
:103E6000B8F1FF3F26D0FDF757FFA0EB0901414510
:103E700002D8B8F1000F1DD12068012E16D080693C
:103E800025EA00000004000C12D00020B84211D135
:103E9000002044F8300F20216173A073216941F0A4
:103EA0002001216120730120BDE8F0874069E7E728
:103EB0000120EBE72068012E0AD0806925EA000086
:103EC0000004000C06D00020B842C9D00020EBE767
:103ED0004069F3E70120F7E72DE9F04798461646D9
:103EE0000D4604464FF000094FF0200AC1F3074782
:103EF00023E020684069C043400515D4206801686C
:103F000041F40071016021686FF480604861C4F879
:103F1000309084F83DA084F83E90216C41F004017B
:103F2000216484F83C9021E0701C06D0FDF7F4FE7B
:103F3000A0EB0800B04203D816B1012F1FD021E03A
:103F40002068012F15D0806925EA00000004000CCC
:103F500018D000BF44F8309F84F80DA084F80E906C
:103F6000216941F02001216184F80C900120BDE815
:103F7000F087406925EA00000004000CEAD12068BF
:103F8000406901E02068806925EA00000004000C17
:103F9000AFD1ECE72DE9F041002590460E460446EE
:103FA000202728E04069C043C0060CD454F8301BD9
:103FB0006FF01000486144F810596777A577206AC0
:103FC0002062257714E0FDF7A7FEA0EB0800B042C1
:103FD00000D886B920684069C04340060BD544F834
:103FE000305F6773A573206940F02000206125735E
:103FF0000120BDE8F08120684169C9434906D1D458
:104000000020F6E770B516460D4604461EE0204631
:10401000FFF7BFFD08B1012070BD681C16D0FDF789
:104020007BFE801BA84200D885B920684069C04348
:1040300000060BD5002044F8300F20216173A073D7
:10404000216941F0200121612073E4E72068406983
:10405000C0430006DBD4002070BD000003B583B070
:104060000A23012204A98DE80E0013460246782196
:104070000248FEF7D9F805B000BD00005C0C002036
:104080000D4808B5416941F00101416140690022D4
:1040900000F00100009001210E20FEF717FA0E201B
:1040A000FEF706FA002201210F20FEF70FFABDE805
:1040B00008400F20FEF7FCB900100240114808B577
:1040C000816941F010018161816901F01001009165
:1040D000816941F020018161816901F02001009135
:1040E000816941F004018161816901F0040100915D
:1040F000816941F008018161806900F00800009049
:1041000008BD0000001002400D4810B50B490160C9
:104110000C49416000214FF480428160C0E90312E4
:1041200041618161C1610162FDF7FCFD002803D09E
:10413000BDE81040FDF750BB10BD0000005400402A
:104140005C0C0020A08601000D4810B50B490160F1
:104150000C49416000214FF480428160C0E90312A4
:1041600041618161C1610162FDF7DCFD002803D07E
:10417000BDE81040FDF730BB10BD00000058004006
:10418000B00C0020A08601000A4810B50849016063
:104190004FF0FF3141604FF480718160FEF7E8FD20
:1041A000002803D0BDE81040FDF716BB10BD00008D
:1041B00000280040040D002010B596B000240F9494
:1041C00010941194129413941C2168461494FBF7D4
:1041D000D4FF202107A8FBF7D0FF2C482A49016013
:1041E00040F2CF21C0E901146321C0E90314446106
:1041F0008461FEF7E9FF08B1FDF7EEFA4FF4805055
:104200000F900FA92148FFF72DF808B1FDF7E4FA48
:104210001E48FFF731F908B1FDF7DEFA139413A930
:104220001A481494FEF79CFF08B1FDF7D5FA6020F8
:10423000CDE9000402940394049405940022694695
:1042400012480694FFF7B2F808B1FDF7C5FA042248
:1042500069460E48FFF7AAF808B1FDF7BDFA0794C2
:10426000089409944FF400500A94CDE90B4007A933
:1042700006480E94FEF749FF08B1FDF7ADFA034872
:10428000FFF75EF816B010BD002C0140180D00209D
:1042900010B58EB000240794089409940A940B94E6
:1042A0001C2168460C94FBF768FF224820490160F6
:1042B00041F61F41C0E90114C721C0E9031484611C
:1042C000FEF782FF08B1FDF787FA4FF480500790A0
:1042D00007A91848FEF7C6FF08B1FDF77DFA154893
:1042E000FFF7CAF808B1FDF777FA0B940BA911484C
:1042F0000C94FEF735FF08B1FDF76EFA6020CDE9AA
:1043000000040294002269460A480494FFF74EF81C
:1043100008B1FDF761FA042269460648FFF746F83E
:1043200008B1FDF759FA0348FFF70AF80EB010BDBF
:1043300000040040600D00200C4810B50A490160DF
:104340004FF4E1314160002181600C22C160C0E97D
:1043500004128161C161FFF7A5FA002803D0BDE80E
:104360001040FDF739BA10BD00380140A80D0020FB
:104370000C4810B50A4901604FF416514160002104
:1043800081600C22C160C0E904128161C161FFF744
:1043900089FA002803D0BDE81040FDF71DBA10BD12
:1043A00000440040F00D0020FEE7FEE770B5002459
:1043B00004F1B000C0B200F0CDFE002000F0CAFE53
:1043C000102000F0C7FE0025002000F0C7FE6D1C85
:1043D000EDB2802DF8D3641CE4B2082CE8D370BD94
:1043E00010B50021074C0A46002004EBC1131A54F3
:1043F000401C80B28028FAD3491C89B20829F3D323
:1044000010BD0000C00E002010B5AE2000F0A2FECE
:10441000202000F09FFE022000F09CFEB02000F063
:1044200099FEC82000F096FE002000F093FE1020B8
:1044300000F090FE402000F08DFE812000F08AFE0A
:10444000FF2000F087FEA12000F084FEA62000F0EF
:1044500081FEA82000F07EFE3F2000F07BFEA4201D
:1044600000F078FED32000F075FE002000F072FE10
:10447000D52000F06FFEF02000F06CFED92000F097
:1044800069FE222000F066FEDA2000F063FE1220B2
:1044900000F060FEDB2000F05DFE202000F05AFE00
:1044A0008D2000F057FE142000F054FEAF2000F0E5
:1044B00051FEBDE81040FFF779BF00002DE9F04143
:1044C0000E4F002404F1B000C0B200F043FE002003
:1044D00000F040FE102000F03DFE002507EBC41662
:1044E000705D00F03BFE6D1CADB2802DF8D3641CF6
:1044F000A4B2082CE6D3BDE8F0810000C00E002075
:1045000030B5802817D2002915DB402913DACB17E4
:1045100001EB537323F007040C1B0121064DA1404E
:10452000DB1005EBC3131844002A027801D00A43BC
:1045300000E08A43027030BDC00E00202DE9FF4F1D
:1045400081B00C468046802845D2002C43DB402CAD
:1045500041DA4FF0000B012B38D0022B3BD17AE02F
:1045600020387DD4B8F17D0F03DAC8F17F01062928
:1045700007DA083424B2C4F13F014FF000080829DB
:104580006EDB3A4900EB4000002501EB400908EBE7
:10459000050000260FFA80F719F80500F04000F03A
:1045A0000102A01901B23846FFF7AAFF761CF6B245
:1045B000082EF1D36D1CEDB2062DE8D308F10600EC
:1045C0000FFA80F80BF1010000F0FF0B039810F8D0
:1045D0000B000028C4D143E0203841D4B8F17F0F4C
:1045E00003DAC8F17F01082907DA103424B2C4F1D4
:1045F0003F014FF00008102932DB1D49002701EB75
:1046000000100090002608EB0600002506EBC70A04
:104610000FFA80F9009810F80A00E84000F0010253
:10462000601900EBC70001B24846FFF769FF6D1C37
:10463000EDB2082DEED3761CF6B2082EE3D37F1C24
:10464000FFB2022FDED308F108000FFA80F80BF159
:10465000010000F0FF0B039810F80B000028BBD1FD
:1046600005B0BDE8F04FFFF729BF00002000002093
:10467000480200200B4601A1FBF7BEBD523A256659
:104680005248202566430000704700000148FEF7AD
:104690008FBA0000040D0020010901EB810100F038
:1046A0000F0000EB4100C0B27047002102E00A3861
:1046B000C0B2491C0A28FAD2090740EA11607047C3
:1046C0002DE9F04104460025C07B627BA37B42E0DC
:1046D000012A16D0032A14D0052A12D0072A10D096
:1046E000082A0ED00A2A0CD00C2A0AD0042A10D08C
:1046F000062A0ED0092A0CD00B2A0AD0022A0DD085
:1047000028E01F2B0CD30C2A05D101221346401C94
:1047100020E01E2B04D30123521C1BE01C2B02D2D1
:1047200003F1010316E011D183B29E0710D1642674
:10473000B3FBF6F706FB173636B94FF4C876B3FB72
:10474000F6F706FB17331BB91D2303E01D2B01D120
:10475000032201236D1C8D42BAD3D1B2E073617381
:10476000DAB2A27300F050F82073BDE8F08170B5A2
:104770000446FDF7D1FA05464FF47A7606E0FDF7D8
:10478000CBFA401BB04201D9032070BD20684068BD
:104790008006F4D52068416841F010014160002096
:1047A00070BD000070B504460068416821F010013A
:1047B0004160FDF7B1FA05464FF47A7607E000BF95
:1047C000FDF7AAFA401BB04201D9032070BD206852
:1047D00040688006F4D5002070BD0168086A496A07
:1047E00089B241EA00407047006881698AB2C169B4
:1047F0008BB2816989B28A4203D0C06961F31F40DC
:10480000704743EA02407047F0B56424C1EBC1032E
:104810000927A500072603EB01130329B3FBF7F1D2
:1048200000F5FA60114401440AD2401EB0FBF4F2D4
:1048300001EB9001B0FBF5F0891A0844001D08E077
:10484000B0FBF4F201EB9001B0FBF5F0891A0844DB
:10485000801CB0FBF6F106FB1100C0B2F0BD70B5D4
:104860000D4606460024FFF782FF48B93168280C40
:1048700008623168A8B248623046FFF793FF00B182
:104880000124204670BD70B50D4606460024FFF792
:104890006EFF48B93168280C88613168A8B2C861D8
:1048A0003046FFF77FFF00B10124204670BD0000B5
:1048B000FEB511A10024D1E90001CDE9010101A853
:1048C000FBF784FC82B2661E334601A90C48FFF751
:1048D00011F90C4D3346012269460948FFF7B2F839
:1048E0009DF800002855641CE4B20A28F2D100208B
:1048F00028550448FEBD0000526561640D0A0000A1
:10490000F00D0020C01200201020FCF7DFBD704722
:104910001CB508A1D1E90001CDE900016846FBF70B
:1049200055FC82B24FF0FF3369460448FFF7E2F8C6
:104930001CBD000048616E640D0A0000F00D0020EF
:104940002DE9F0410C4680464FF4007786B01646BC
:1049500039460C48FBF711FC2046FCF722F80446C8
:104960000D464046FCF71DF88DE8730006A3134A78
:104970003946044800F0F6FB06B00248BDE8F041B5
:1049800000F0D6BBE01200202F7379732F6B3062DA
:104990003076457776754D412F6465766963652F6E
:1049A0007468696E672F6576656E742F70726F70AC
:1049B000657274792F706F7374000000C868000806
:1049C00010B504468CB04FF400710D48FBF7D5FBD1
:1049D0000CA219A10A4800F0DFFB22461FA168467D
:1049E00000F0DAFB69460648FBF7D2FB1FA104483A
:1049F000FBF7CEFB024800F09BFB0CB010BD0000A3
:104A0000E01200202F7379732F6B30623076457778
:104A100076754D412F6465766963652F7468696E9C
:104A2000672F6576656E742F70726F70657274791A
:104A30002F706F737400000041542B4D515454502B
:104A400055423D302C222573222C227B5C22706142
:104A500072616D735C223A7B000000005C226D6F16
:104A600064655C223A25645C2C0000007D7D222C6C
:104A7000312C300D0A000000FDF7C2BC70B594B0B7
:104A800028216846FBF779FB14210AA8FBF775FB80
:104A9000002501240F951195052012950090CDE970
:104AA000025410954FF48030019002260494CDE911
:104AB00007604FF4E01009906846FDF7E3FE08B187
:104AC00072B6FEE70F20CDE90A064FF48060CDE90B
:104AD0000C5002210AA80E95FDF7F8FD08B172B638
:104AE000FEE74FF48070CDE90F400FA8FDF778FD89
:104AF000002801D072B6FEE714B070BD7047000008
:104B0000F0B50268164B174C174D4FF0804798428E
:104B100005D0B84203D0A04201D0A84203D122F070
:104B200070064A683243984205D0B84203D0A0428A
:104B300001D0A84203D122F44074CA6822434C69D0
:104B400022F08002224302608A68C2620A6882629E
:104B5000984201D10969016301214161F0BD000062
:104B6000002C0140000400400008004010B501F096
:104B70001F030121046A99408C430462016A9A4030
:104B80001143016210BD10B5846842EA032224F487
:104B90007F440A432243826010BD826822F0700283
:104BA0000A4342F0070181607047000030B5036A94
:104BB000026A22F0010202624268846924F07305ED
:104BC0000C682C4323F002058B682B430A4DA84246
:104BD0000BD123F00805CB6822F440722B434D69BA
:104BE00023F0040315438A692A43426084614968BB
:104BF0004163036230BD0000002C014030B5026A01
:104C0000036A23F010030362436884690D6824F487
:104C1000E64444EA05248D6822F0200242EA0512A7
:104C20000B4DA8420ED1CD6822F0800242EA051257
:104C30004D6923F4406343EA85038D6922F0400205
:104C400043EA85034360846149688163026230BD41
:104C5000002C014030B5036A026A22F480720262BD
:104C60004268C46923F4007324F073050C682C4374
:104C70008D6843EA05230C4DA8420ED1CD6823F47C
:104C8000006343EA05234D6922F4405242EA0512CB
:104C90008D6923F4806342EA05124260C461496869
:104CA000C163036230BD0000002C014030B5046ACE
:104CB000026A22F4805202624268C3690D6823F4DA
:104CC000E64343EA05238D6824F4005444EA05349E
:104CD000064DA84204D14D6922F4804242EA851271
:104CE0004260C36149680164046230BD002C014028
:104CF00010B5036A046A24F001040462846924F094
:104D0000F00444EA021423F00A020A4384610262B6
:104D100010BD10B5036A046A24F0100404628469AB
:104D200023F0A00324F4704444EA023243EA011160
:104D30008261016210BD10B5406A0021C185C18445
:104D4000FEF778FC10BD70B5446A2068406994F89D
:104D50004110C0F3C0100025212904D118B1E58409
:104D6000204600F08EF82068406994F84210C0F3A5
:104D70008010222904D118B1E585204600F05AF8A8
:104D8000606C40F0100060642046FEF753FC70BD7C
:104D900010B50146406A096809684FF000028906AB
:104DA0002ED4C28501680C3151E8003F23F4807392
:104DB00041E80034002CF5D10168143151E8003F7E
:104DC00023F0010341E80034002CF5D101681431CF
:104DD00051E8003F23F0400341E80034002CF5D1B6
:104DE000202180F84210016B012909D101680C31A2
:104DF00051E8003F23F0100341E80034002CF5D1C6
:104E00004263016B012902D0FEF772FE10BD818D55
:104E1000FEF7D6FB10BD10B5406A01214163016B5E
:104E2000012902D0FEF765FE10BD818D4908FEF70D
:104E3000C7FB10BD01680C3151E8002F22F49072BD
:104E400041E80023002BF5D10168143151E8002F0F
:104E500022F0010241E80023002BF5D1016B01296A
:104E600009D101680C3151E8002F22F0100241E80D
:104E70000023002BF5D1202180F84210002101638E
:104E8000704701680C3151E8002F22F0C00241E860
:104E90000023002BF5D1202180F84110704708B580
:104EA00090F84210222901D0022008BD82684FF4F8
:104EB00080539A4201D1016921B1816A9A421BD083
:104EC0004AB10AE00268816A5268C2F308020A80A5
:104ED000816A891C08E0026972B10268526802F0B6
:104EE0007F020A70816A491C8162C18D491E0904D2
:104EF000090CC18503D01BE002685268F1E7016824
:104F0000CA6822F02002CA600168CA6822F480726E
:104F1000CA6001684A6922F001024A61202180F8D2
:104F2000421000214163026B012A03D0FEF7E0FD2D
:104F3000002008BD016301680C3151E8002F22F008
:104F4000100241E80023002BF5D101680A68D2065F
:104F500002D50A6849680091818DFEF731FBE7E7C9
:104F600070B5044600680169E26821F440511143BC
:104F700001612169A0680843616908432168CA6822
:104F800041F20C639A430243CA6020684169A269F6
:104F900021F44071114341611E492068884202D1C9
:104FA000FDF73AFC01E0FDF727FC00EBC00101EB47
:104FB0000012606864218000B2FBF0F3B3FBF1F3F0
:104FC0006FF018067343B2FBF0F5B2FBF0F605EB99
:104FD0008305322303EB0515B5FBF1F5B6FBF1F6BE
:104FE00005F0F00505EB0615B2FBF0F6B2FBF0F0AC
:104FF000B0FBF1F06FF01802504306EB800003EBBA
:105000000010B0FBF1F0216800F00F002844886028
:1050100070BD00000038014038B5816204468285C9
:10502000002013466064222284F84220E56B1B4A6C
:10503000AA62E56B1A4AEA62E56B1A4A2A63E26BD6
:1050400050630A462168E06B091DFCF725FD2068C6
:10505000016840680090206948B120680C3050E831
:10506000001F41F4807140E80012002AF5D1206849
:10507000143050E8001F41F0010140E80012002AFE
:10508000F5D12068143050E8001F41F0400140E89D
:105090000012002AF5D1002038BD0000914D000813
:1050A000174E0008474D00082DE9F0419846174675
:1050B0000E460446069D27E0681C25D02DB1FCF75E
:1050C0002BFEA0EB0800A8421ED920680C3050E847
:1050D000001F21F4D07140E80012002AF5D12068A9
:1050E000143050E8001F21F0010140E80012002AAE
:1050F000F5D1202084F8410084F84200002084F893
:1051000040000320BDE8F0812068006836EA000016
:1051100004D00020B842CFD00020F3E70120F9E707
:105120000148FEF789BA0000A80D0020FEE7000044
:1051300010B504000AD0FBF749F8214682B2BDE859
:1051400010404FF0FF330248FEF7D4BC10BD000002
:10515000A80D002001460020FEF780BF0146402038
:10516000FEF77CBF0FB47CB50C0009AD01D0611E09
:1051700000E00021CDE90001064B6A462946089867
:1051800000F008F9002C02D0009A002111707CBCBC
:105190005DF814FB9B5A00080FB4084B10B504A926
:1051A00002AA039800F0F6F8044602A9002000F0D5
:1051B0007FFC204610BC5DF814FB0000B15A0008CB
:1051C0000907090E002804DB00F1E02080F8001434
:1051D000704700F00F0000F1E02080F8141D7047C8
:1051E00002E008C8121F08C1002AFAD170477047B0
:1051F000002001E001C1121F002AFBD1704700000E
:105200002DE9FF5F82B00021DDE90430020DDDF8F9
:1052100040B0034318D044F61050A2F2FF3242438C
:105220001514119801281FD0A5EB0B00401C5FEA54
:10523000000A4FF000064E4FDFF83891B046504656
:1052400015D5CAF1000413E0119801244AA30128DE
:1052500001D16FEA0B010298119AC0E90031C0E94F
:10526000024206B0BDE8F09FCBF10000DFE7044644
:105270000021404A491842EB0450CDE9001012E0E9
:10528000E00707D032463B4640464946FBF775FDEE
:105290008046894632463B4610461946FBF76DFD6F
:1052A00006460F466410002CEAD1DDE90401DDE971
:1052B0000023BAF1000F06DAFBF75FFD42464B46CA
:1052C000FBF75BFD05E0FBF7D1FA42464B46FBF7E7
:1052D000CDFA04460E460022284BFBF7E5FD03D825
:1052E0004FF0FF30014607E00022254B20463146B3
:1052F000FBF79CFCFBF7BFFD102409E0002C0ADB48
:105300000A220023FBF78AFB039B30321A55641EE6
:1053100050EA0102F2D1641C039AC4F1110314444F
:10532000119A012A03D0012208430DD10AE0084353
:1053300004D000204FF0110B119072E7A3EB0B0586
:105340006D1E0DE05B4504DD4FF0000205F1010527
:1053500004E003DA4FF00002A5F10105002AECD0C9
:1053600002981199C0E90231C0E9004579E70000CF
:10537000000014400000F03F300000000000F04347
:105380000000E03F30380A2801D201207047002099
:10539000704700002DE9FF4F95B09A4688460646B3
:1053A0000025EEE1252877D100242746F94A01217E
:1053B000039400E0044316F8013F203B01FA03F098
:1053C0001042F7D130782A2811D06FF02F033078AF
:1053D000A0F13002092A16D8039A44F0020402EB25
:1053E000820203EB42021044761C0390EFE758F868
:1053F000042B0392002A03DA504244F40054039031
:1054000044F00204761C30782E2816D116F8010FCD
:1054100044F004042A280DD06FF02F023078A0F158
:105420003003092B09D807EB870302EB4303C718A6
:10543000761CF3E758F8047B761C30786C280FD084
:1054400006DC4C2817D068280DD06A2814D104E057
:10545000742810D07A280FD10DE044F400140AE02B
:1054600044F4801401E044F440147278824202D182
:1054700004F58014761C761C307866280BD013DC7B
:10548000582877D009DC002875D04528F6D0462862
:10549000F4D047281AD193E118E0632835D0642866
:1054A00079D0652812D18BE1702873D008DC672889
:1054B000F1D069286FD06E280DD06F2806D1ACE0EE
:1054C00073282CD0752874D0782853D05246179959
:1054D00090476D1C54E1C4F30250022809D0032800
:1054E0000DD0D8F8001004280DD00D6008F1040884
:1054F00046E1D8F80010EA17C1E90052F6E7D8F8FB
:1055000000100D80F2E70D70F0E718F8041B8DF81D
:10551000001000208DF80100EB46012003E058F850
:1055200004BB4FF0FF3061074FF0000102D40DE0E3
:1055300009F101018946B9420FDA8145F8DB1BF810
:1055400009100029F4D108E009F1010189468142DE
:10555000FADB1BF809100029F6D103985346A0EB9B
:10556000090721463846179A00F080FA284400EBD4
:10557000090507E044E008E10DE01BF8010B524685
:1055800017999047B9F10109F7D253462146384699
:10559000179AF2E039E00A21C4F302524FF0000BEF
:1055A0000091022A06D058F8040BC117032A09D02B
:1055B0000AE023E008F1070020F00702F2E8020108
:1055C000904605E000B2C117042A01D140B2C117CC
:1055D000002906DA0A460021404261EB02012D2231
:1055E00002E0220504D52B228DF80420012203E0DD
:1055F000E20701D02022F7E7914657E00A2100E0B8
:1056000010214FF0000B00910BE010214FF0000B28
:1056100044F004040827009103E008204FF0000B39
:105620000090C4F30252022A05D058F8040B00215E
:10563000032A08D008E008F1070020F00702F2E88A
:105640000201904603E080B2042A00D1C0B24FF0BC
:10565000000922072AD53278702A07D0DDF800C069
:105660008CF0100C5CEA0B0C05D00EE040228DF89B
:105670000420012208E050EA010306D030238DF80F
:1056800004308DF8052002229146009B83F0080328
:1056900053EA0B030AD150EA010201D1620705D592
:1056A00030228DF804204FF001097F1E3278582AED
:1056B00004D039A20C920CAA02920BE03BA2F9E7AB
:1056C0005B46009AFBF7AAF90C9B9B5C029A521E60
:1056D0000292137050EA0102F2D1029804A9081A4A
:1056E00000F1200B600702D524F4803400E001278C
:1056F0005F4502DDA7EB0B0000E0002000EB0B0193
:10570000009003984944401A0390E00306D453469E
:105710002146179A039800F0A9F90544002706E0EE
:1057200001A85246C05D179990476D1C7F1C4F45DC
:10573000F6DBE0030CD553462146179A039800F098
:1057400095F9054404E030205246179990476D1CA6
:105750000099481E00900029F5DC08E002980299A3
:1057600052460078491C0291179990476D1CBBF175
:105770000001ABF1010BF1DC5BE100F065F90544E0
:10578000761C307800287FF40DAE19B02846BDE8AD
:10579000F08F0000092801003031323334353637BC
:1057A000383961626364656600000000303132336D
:1057B000343536373839414243444546000000000D
:1057C000600700D4062708F1070020F00700F0E882
:1057D0000223804603F0004C5FEA0C0001D097A042
:1057E00009E0200501D596A005E0E00701D095A0CD
:1057F00001E0AFF24C001390307823F000436528AD
:105800000CD006DC452809D046281DD047287FD17A
:105810003BE0662818D067287AD136E00021112FA6
:1058200001DB112000E0781CCDE9000104A90CA8DF
:10583000FFF7E6FCDDE90D010C9A4FF0000B07F1D4
:105840000109109200914EE04FF000400097CDE921
:10585000011004A90CA8FFF7D3FCDDE90D020C9B95
:105860000F994FF0000B91461093009211B9791CDB
:1058700000EB0109B7EB090003D4C0F1FF3B07F1CE
:105880000109A9EB0700019042E0012F00DA01278E
:105890000021112F01DD112000E03846CDE9000183
:1058A00004A90CA8FFF7ACFCDDE90D010C9A0091EE
:1058B0004FF0000BB946109221070FD4009A4A45C9
:1058C00003DA914601E0A9F10109B9F1010F05DD03
:1058D000109AA9F10101515C3029F4D0B84202DAE2
:1058E00010F1040F03DA0121CDE9011010E00028C6
:1058F00003DC8344A9EB000102E0411C494500DDC3
:105900008946A0EB0B00401C01904FF00040029034
:10591000200705D40198484502DB4FF0FF30019085
:1059200000208DF84B0002980DF14B07B0F1004FAD
:1059300025D002200C902B200D90029800280CDA24
:10594000404202902D200D9007E00A210298FBF7BB
:105950004FF83031029007F8011D0C99481E0C9049
:105960000029F2DC02980028EFD1791E0D9808700A
:10597000307800F0200040F0450007F8020D11A833
:10598000C01BC01D02901398007800B1012000EBED
:105990000901019801EBE071029801440398401A53
:1059A000401E0390E00306D453462146179A0398FD
:1059B00000F05CF805441398007818B15246179926
:1059C00090476D1CE00323D553462146179A039850
:1059D00000F04CF805441BE0BBF1000F07DB00981A
:1059E000584504DD1098179910F80B0001E017993D
:1059F00030205246904701980BF1010B401E05F1F3
:105A00000105019004D12E205246179990476D1C34
:105A1000B9F10001A9F10109DEDC05E017F8010B7D
:105A20005246179990476D1C0299481E0290002912
:105A3000F4DC53462146179A03989EE62D00000099
:105A40002B000000200000002DE9F0410446002555
:105A50001E461746880404D405E039462020B04786
:105A60006D1C641EF9D52846BDE8F0812DE9F04192
:105A7000044600251E469046C80301D5302700E0A5
:105A80002027880404D505E041463846B0476D1C00
:105A9000641EF9D52846BDE8F0814A68002A06D080
:105AA0000A68531C0B6010704868401E48607047BD
:105AB0000A68531C0B60107070470000094808B555
:105AC000816941F0040181618069002100F00400D6
:105AD00000900548FDF7FEFCBDE80840042102489F
